{
    "_format": "hh-sol-artifact-1",
    "contractName": "coffee",
    "sourceName": "contracts/coffee.sol",
    "abi": [
        {
            "inputs": [],
            "stateMutability": "nonpayable",
            "type": "constructor"
        },
        {
            "inputs": [
                {
                    "internalType": "string",
                    "name": "name",
                    "type": "string"
                },
                {
                    "internalType": "string",
                    "name": "message",
                    "type": "string"
                }
            ],
            "name": "buycoffee",
            "outputs": [],
            "stateMutability": "payable",
            "type": "function"
        },
        {
            "inputs": [],
            "name": "getMemos",
            "outputs": [
                {
                    "components": [
                        {
                            "internalType": "string",
                            "name": "name",
                            "type": "string"
                        },
                        {
                            "internalType": "string",
                            "name": "message",
                            "type": "string"
                        },
                        {
                            "internalType": "uint256",
                            "name": "timestamp",
                            "type": "uint256"
                        },
                        {
                            "internalType": "address",
                            "name": "from",
                            "type": "address"
                        }
                    ],
                    "internalType": "struct coffee.Memo[]",
                    "name": "",
                    "type": "tuple[]"
                }
            ],
            "stateMutability": "view",
            "type": "function"
        },
        {
            "inputs": [
                {
                    "internalType": "uint256",
                    "name": "",
                    "type": "uint256"
                }
            ],
            "name": "memo",
            "outputs": [
                {
                    "internalType": "string",
                    "name": "name",
                    "type": "string"
                },
                {
                    "internalType": "string",
                    "name": "message",
                    "type": "string"
                },
                {
                    "internalType": "uint256",
                    "name": "timestamp",
                    "type": "uint256"
                },
                {
                    "internalType": "address",
                    "name": "from",
                    "type": "address"
                }
            ],
            "stateMutability": "view",
            "type": "function"
        },
        {
            "inputs": [],
            "name": "owner",
            "outputs": [
                {
                    "internalType": "address payable",
                    "name": "",
                    "type": "address"
                }
            ],
            "stateMutability": "view",
            "type": "function"
        }
    ],
    "bytecode": "0x608060405234801561001057600080fd5b5033600160006101000a81548173ffffffffffffffffffffffffffffffffffffffff021916908373ffffffffffffffffffffffffffffffffffffffff160217905550610eb1806100616000396000f3fe60806040526004361061003f5760003560e01c80635342337d14610044578063865c5172146100605780638da5cb5b1461008b57806396eb58f8146100b6575b600080fd5b61005e600480360381019061005991906106f9565b6100f6565b005b34801561006c57600080fd5b50610075610311565b6040516100829190610990565b60405180910390f35b34801561009757600080fd5b506100a06104f4565b6040516100ad91906109d3565b60405180910390f35b3480156100c257600080fd5b506100dd60048036038101906100d89190610a1a565b61051a565b6040516100ed9493929190610aaf565b60405180910390f35b60003411610139576040517f08c379a000000000000000000000000000000000000000000000000000000000815260040161013090610b4e565b60405180910390fd5b600160009054906101000a900473ffffffffffffffffffffffffffffffffffffffff1673ffffffffffffffffffffffffffffffffffffffff166108fc349081150290604051600060405180830381858888f193505050501580156101a1573d6000803e3d6000fd5b506000604051806080016040528086868080601f016020809104026020016040519081016040528093929190818152602001838380828437600081840152601f19601f82011690508083019250505050505050815260200184848080601f016020809104026020016040519081016040528093929190818152602001838380828437600081840152601f19601f8201169050808301925050505050505081526020014281526020013373ffffffffffffffffffffffffffffffffffffffff16815250908060018154018082558091505060019003906000526020600020906004020160009091909190915060008201518160000190816102a19190610da9565b5060208201518160010190816102b79190610da9565b506040820151816002015560608201518160030160006101000a81548173ffffffffffffffffffffffffffffffffffffffff021916908373ffffffffffffffffffffffffffffffffffffffff160217905550505050505050565b60606000805480602002602001604051908101604052809291908181526020016000905b828210156104eb578382906000526020600020906004020160405180608001604052908160008201805461036890610bcc565b80601f016020809104026020016040519081016040528092919081815260200182805461039490610bcc565b80156103e15780601f106103b6576101008083540402835291602001916103e1565b820191906000526020600020905b8154815290600101906020018083116103c457829003601f168201915b505050505081526020016001820180546103fa90610bcc565b80601f016020809104026020016040519081016040528092919081815260200182805461042690610bcc565b80156104735780601f1061044857610100808354040283529160200191610473565b820191906000526020600020905b81548152906001019060200180831161045657829003601f168201915b50505050508152602001600282015481526020016003820160009054906101000a900473ffffffffffffffffffffffffffffffffffffffff1673ffffffffffffffffffffffffffffffffffffffff1673ffffffffffffffffffffffffffffffffffffffff168152505081526020019060010190610335565b50505050905090565b600160009054906101000a900473ffffffffffffffffffffffffffffffffffffffff1681565b6000818154811061052a57600080fd5b906000526020600020906004020160009150905080600001805461054d90610bcc565b80601f016020809104026020016040519081016040528092919081815260200182805461057990610bcc565b80156105c65780601f1061059b576101008083540402835291602001916105c6565b820191906000526020600020905b8154815290600101906020018083116105a957829003601f168201915b5050505050908060010180546105db90610bcc565b80601f016020809104026020016040519081016040528092919081815260200182805461060790610bcc565b80156106545780601f1061062957610100808354040283529160200191610654565b820191906000526020600020905b81548152906001019060200180831161063757829003601f168201915b5050505050908060020154908060030160009054906101000a900473ffffffffffffffffffffffffffffffffffffffff16905084565b600080fd5b600080fd5b600080fd5b600080fd5b600080fd5b60008083601f8401126106b9576106b8610694565b5b8235905067ffffffffffffffff8111156106d6576106d5610699565b5b6020830191508360018202830111156106f2576106f161069e565b5b9250929050565b600080600080604085870312156107135761071261068a565b5b600085013567ffffffffffffffff8111156107315761073061068f565b5b61073d878288016106a3565b9450945050602085013567ffffffffffffffff8111156107605761075f61068f565b5b61076c878288016106a3565b925092505092959194509250565b600081519050919050565b600082825260208201905092915050565b6000819050602082019050919050565b600081519050919050565b600082825260208201905092915050565b60005b838110156107e05780820151818401526020810190506107c5565b60008484015250505050565b6000601f19601f8301169050919050565b6000610808826107a6565b61081281856107b1565b93506108228185602086016107c2565b61082b816107ec565b840191505092915050565b6000819050919050565b61084981610836565b82525050565b600073ffffffffffffffffffffffffffffffffffffffff82169050919050565b600061087a8261084f565b9050919050565b61088a8161086f565b82525050565b600060808301600083015184820360008601526108ad82826107fd565b915050602083015184820360208601526108c782826107fd565b91505060408301516108dc6040860182610840565b5060608301516108ef6060860182610881565b508091505092915050565b60006109068383610890565b905092915050565b6000602082019050919050565b60006109268261077a565b6109308185610785565b93508360208202850161094285610796565b8060005b8581101561097e578484038952815161095f85826108fa565b945061096a8361090e565b925060208a01995050600181019050610946565b50829750879550505050505092915050565b600060208201905081810360008301526109aa818461091b565b905092915050565b60006109bd8261084f565b9050919050565b6109cd816109b2565b82525050565b60006020820190506109e860008301846109c4565b92915050565b6109f781610836565b8114610a0257600080fd5b50565b600081359050610a14816109ee565b92915050565b600060208284031215610a3057610a2f61068a565b5b6000610a3e84828501610a05565b91505092915050565b600082825260208201905092915050565b6000610a63826107a6565b610a6d8185610a47565b9350610a7d8185602086016107c2565b610a86816107ec565b840191505092915050565b610a9a81610836565b82525050565b610aa98161086f565b82525050565b60006080820190508181036000830152610ac98187610a58565b90508181036020830152610add8186610a58565b9050610aec6040830185610a91565b610af96060830184610aa0565b95945050505050565b7f506c6561736520706179206d6f7265207468616e203020657468657200000000600082015250565b6000610b38601c83610a47565b9150610b4382610b02565b602082019050919050565b60006020820190508181036000830152610b6781610b2b565b9050919050565b7f4e487b7100000000000000000000000000000000000000000000000000000000600052604160045260246000fd5b7f4e487b7100000000000000000000000000000000000000000000000000000000600052602260045260246000fd5b60006002820490506001821680610be457607f821691505b602082108103610bf757610bf6610b9d565b5b50919050565b60008190508160005260206000209050919050565b60006020601f8301049050919050565b600082821b905092915050565b600060088302610c5f7fffffffffffffffffffffffffffffffffffffffffffffffffffffffffffffffff82610c22565b610c698683610c22565b95508019841693508086168417925050509392505050565b6000819050919050565b6000610ca6610ca1610c9c84610836565b610c81565b610836565b9050919050565b6000819050919050565b610cc083610c8b565b610cd4610ccc82610cad565b848454610c2f565b825550505050565b600090565b610ce9610cdc565b610cf4818484610cb7565b505050565b5b81811015610d1857610d0d600082610ce1565b600181019050610cfa565b5050565b601f821115610d5d57610d2e81610bfd565b610d3784610c12565b81016020851015610d46578190505b610d5a610d5285610c12565b830182610cf9565b50505b505050565b600082821c905092915050565b6000610d8060001984600802610d62565b1980831691505092915050565b6000610d998383610d6f565b9150826002028217905092915050565b610db2826107a6565b67ffffffffffffffff811115610dcb57610dca610b6e565b5b610dd58254610bcc565b610de0828285610d1c565b600060209050601f831160018114610e135760008415610e01578287015190505b610e0b8582610d8d565b865550610e73565b601f198416610e2186610bfd565b60005b82811015610e4957848901518255600182019150602085019450602081019050610e24565b86831015610e665784890151610e62601f891682610d6f565b8355505b6001600288020188555050505b50505050505056fea264697066735822122009c22d0efbd89f9078e8847ebda8ff01bdc89c1780bd41f77033e37d4e275b9564736f6c63430008110033",
    "linkReferences": {},
    "deployedLinkReferences": {}
}